{
  "transactions": [
    {
      "hash": "0xbd7895a0cf09d98512453355542b3e096fd31c4c4d6587a382580a2e2b9ed9ef",
      "transactionType": "CALL",
      "contractName": null,
      "contractAddress": "0x3167dc94b4ff583a95170bb6eb3e56d2e14cb0b1",
      "function": "transferOwnership(address)",
      "arguments": [
        "0xdb90Fa67F10e9e58e5c9C768309E2facF30E2246"
      ],
      "transaction": {
        "from": "0x993a040a022fb002f36e0fb0831e5db0050cffcd",
        "to": "0x3167dc94b4ff583a95170bb6eb3e56d2e14cb0b1",
        "gas": "0xbf6b",
        "value": "0x0",
        "input": "0xf2fde38b000000000000000000000000db90fa67f10e9e58e5c9c768309e2facf30e2246",
        "nonce": "0x15",
        "chainId": "0xaa36a7"
      },
      "additionalContracts": [],
      "isFixedGasLimit": false
    }
  ],
  "receipts": [
    {
      "status": "0x1",
      "cumulativeGasUsed": "0x7f78e4",
      "logs": [
        {
          "address": "0x3167dc94b4ff583a95170bb6eb3e56d2e14cb0b1",
          "topics": [
            "0x8be0079c531659141344cd1fd0a4f28419497f9722a3daafe3b4186f6b6457e0",
            "0x000000000000000000000000993a040a022fb002f36e0fb0831e5db0050cffcd",
            "0x000000000000000000000000db90fa67f10e9e58e5c9c768309e2facf30e2246"
          ],
          "data": "0x",
          "blockHash": "0xbdd135a923e5d47a3bc66aa776b8bda5bcd886923352020d6831ab33d2f35e24",
          "blockNumber": "0x65384b",
          "blockTimestamp": "0x66d8d1e8",
          "transactionHash": "0xbd7895a0cf09d98512453355542b3e096fd31c4c4d6587a382580a2e2b9ed9ef",
          "transactionIndex": "0x2a",
          "logIndex": "0x36",
          "removed": false
        }
      ],
      "logsBloom": "0x00000000008000000000000000000000000000000000000000800000000000000000000000000000000000000000000000000000000000000800000000000002000000000000000000000000000000000001000000000000000000000000000800000000000000000000000000000000000000000000002000000000000000400000000000000000000000000000000000000000000000000000000000000000000000000000000000000000000000000000001000000000000000000000000000000000000000000000000000000000000000000000000000000000000000000000000000040000000000000000000000000000000000000080000000000000",
      "type": "0x2",
      "transactionHash": "0xbd7895a0cf09d98512453355542b3e096fd31c4c4d6587a382580a2e2b9ed9ef",
      "transactionIndex": "0x2a",
      "blockHash": "0xbdd135a923e5d47a3bc66aa776b8bda5bcd886923352020d6831ab33d2f35e24",
      "blockNumber": "0x65384b",
      "gasUsed": "0x82e3",
      "effectiveGasPrice": "0x1821921aa",
      "from": "0x993a040a022fb002f36e0fb0831e5db0050cffcd",
      "to": "0x3167dc94b4ff583a95170bb6eb3e56d2e14cb0b1",
      "contractAddress": null
    }
  ],
  "libraries": [],
  "pending": [],
  "returns": {},
  "timestamp": 1725485551,
  "chain": 11155111,
  "commit": "92c6eef"
}