{
  "transactions": [
    {
      "hash": "0x5138ba44fdb6271723ddfa4c4df4ac9d822324d1d1aca4494fed1a3fdffa34f2",
      "transactionType": "CALL",
      "contractName": null,
      "contractAddress": "0x12a8d9505fe49a47d1335d58ab3970962af7281d",
      "function": "transferOwnership(address)",
      "arguments": [
        "0xdb90Fa67F10e9e58e5c9C768309E2facF30E2246"
      ],
      "transaction": {
        "from": "0x993a040a022fb002f36e0fb0831e5db0050cffcd",
        "to": "0x12a8d9505fe49a47d1335d58ab3970962af7281d",
        "gas": "0xb48c",
        "value": "0x0",
        "input": "0xf2fde38b000000000000000000000000db90fa67f10e9e58e5c9c768309e2facf30e2246",
        "nonce": "0x2e",
        "chainId": "0xaa36a7"
      },
      "additionalContracts": [],
      "isFixedGasLimit": false
    }
  ],
  "receipts": [
    {
      "status": "0x1",
      "cumulativeGasUsed": "0x899f88",
      "logs": [
        {
          "address": "0x12a8d9505fe49a47d1335d58ab3970962af7281d",
          "topics": [
            "0x8be0079c531659141344cd1fd0a4f28419497f9722a3daafe3b4186f6b6457e0",
            "0x000000000000000000000000993a040a022fb002f36e0fb0831e5db0050cffcd",
            "0x000000000000000000000000db90fa67f10e9e58e5c9c768309e2facf30e2246"
          ],
          "data": "0x",
          "blockHash": "0xc838a896af0cef19e7d4c3eb4c8f4f5e072a620ef1ee95a420a5c3f23eb00219",
          "blockNumber": "0x656323",
          "blockTimestamp": "0x66db4230",
          "transactionHash": "0x5138ba44fdb6271723ddfa4c4df4ac9d822324d1d1aca4494fed1a3fdffa34f2",
          "transactionIndex": "0x8b",
          "logIndex": "0x98",
          "removed": false
        }
      ],
      "logsBloom": "0x00000000000000000000000000000000000000000000000000800000000000000000000000000000000000000000000000001000000000000000000000000000000000000000000000000000000000000001000000000000000000000000000800000000000000000000000000000000000000000000002000000000000000400000000000000000000000000000000200000000000000000000000000000000000000000800000000000000000000000000001000000000000000000000000000000000000000000000000000000000000000000000000000000000000000000000000000040000000000000000000000000000000000000080000000000000",
      "type": "0x2",
      "transactionHash": "0x5138ba44fdb6271723ddfa4c4df4ac9d822324d1d1aca4494fed1a3fdffa34f2",
      "transactionIndex": "0x8b",
      "blockHash": "0xc838a896af0cef19e7d4c3eb4c8f4f5e072a620ef1ee95a420a5c3f23eb00219",
      "blockNumber": "0x656323",
      "gasUsed": "0x82b7",
      "effectiveGasPrice": "0x358fa170b",
      "from": "0x993a040a022fb002f36e0fb0831e5db0050cffcd",
      "to": "0x12a8d9505fe49a47d1335d58ab3970962af7281d",
      "contractAddress": null
    }
  ],
  "libraries": [],
  "pending": [],
  "returns": {},
  "timestamp": 1725645366,
  "chain": 11155111,
  "commit": "ecb143a"
}