{
  "transactions": [
    {
      "hash": "0x049c4b5c78df983cac62069e3f2fdc587b8a4f7e790e02ed588aec4957223064",
      "transactionType": "CALL",
      "contractName": null,
      "contractAddress": "0xdcfb65cc9f69d78ddfa30f47eefd1594466fb47d",
      "function": "releaseVaultTokens(uint256)",
      "arguments": [
        "1"
      ],
      "transaction": {
        "from": "0x993a040a022fb002f36e0fb0831e5db0050cffcd",
        "to": "0xdcfb65cc9f69d78ddfa30f47eefd1594466fb47d",
        "gas": "0x16fdd",
        "value": "0x0",
        "input": "0x14920c6f0000000000000000000000000000000000000000000000000000000000000001",
        "nonce": "0x3c",
        "chainId": "0xaa36a7"
      },
      "additionalContracts": [],
      "isFixedGasLimit": false
    }
  ],
  "receipts": [
    {
      "status": "0x1",
      "cumulativeGasUsed": "0x110c5c8",
      "logs": [
        {
          "address": "0xdcfb65cc9f69d78ddfa30f47eefd1594466fb47d",
          "topics": [
            "0xddf252ad1be2c89b69c2b068fc378daa952ba7f163c4a11628f55a4df523b3ef",
            "0x00000000000000000000000050604ad187e52164218d3243d80f0f912ccf05cc",
            "0x000000000000000000000000993a040a022fb002f36e0fb0831e5db0050cffcd"
          ],
          "data": "0x00000000000000000000000000000000000000000000000000000000000003e8",
          "blockHash": "0xba4e1c5c96ae61dfec5caf796e97326e404a725d160a8e0a1da7a751485bdecd",
          "blockNumber": "0x65951b",
          "transactionHash": "0x049c4b5c78df983cac62069e3f2fdc587b8a4f7e790e02ed588aec4957223064",
          "transactionIndex": "0x50",
          "logIndex": "0x76",
          "removed": false
        }
      ],
      "logsBloom": "0x00000080000000000000000000000800000000000000000000000000000000000000000000000000000000000000000000000000000000000040000000000000000000000000000000000008000000000000800000000000000000000000000000000000000000000000000000000000000000000000000000000010000000000000000000000000000000000000000000000000000000000000000000000000000000000000000000080000000000000000001000000000000000000000000000000002000000000000000000000000000000000000000000000000000000000000000000000000000000000000000000000000000000000080000000000100",
      "type": "0x2",
      "transactionHash": "0x049c4b5c78df983cac62069e3f2fdc587b8a4f7e790e02ed588aec4957223064",
      "transactionIndex": "0x50",
      "blockHash": "0xba4e1c5c96ae61dfec5caf796e97326e404a725d160a8e0a1da7a751485bdecd",
      "blockNumber": "0x65951b",
      "gasUsed": "0x10a54",
      "effectiveGasPrice": "0x1334ca510",
      "from": "0x993a040a022fb002f36e0fb0831e5db0050cffcd",
      "to": "0xdcfb65cc9f69d78ddfa30f47eefd1594466fb47d",
      "contractAddress": null
    }
  ],
  "libraries": [],
  "pending": [],
  "returns": {},
  "timestamp": 1725830153,
  "chain": 11155111,
  "commit": "ecb143a"
}