{
  "transactions": [
    {
      "hash": "0x377eb9261ef62af575ddb13a6e03e30aa841900102ad622cfdecf67a24be5542",
      "transactionType": "CALL",
      "contractName": null,
      "contractAddress": "0xbafff1fca61eaad3726fcd88fbe128a852c2e2fa",
      "function": "releaseVaultTokens(uint256)",
      "arguments": [
        "3"
      ],
      "transaction": {
        "from": "0x993a040a022fb002f36e0fb0831e5db0050cffcd",
        "to": "0xbafff1fca61eaad3726fcd88fbe128a852c2e2fa",
        "gas": "0x18571",
        "value": "0x0",
        "input": "0x14920c6f0000000000000000000000000000000000000000000000000000000000000003",
        "nonce": "0x73",
        "chainId": "0xaa36a7"
      },
      "additionalContracts": [],
      "isFixedGasLimit": false
    }
  ],
  "receipts": [
    {
      "status": "0x1",
      "cumulativeGasUsed": "0x9a5ed5",
      "logs": [
        {
          "address": "0xbafff1fca61eaad3726fcd88fbe128a852c2e2fa",
          "topics": [
            "0xddf252ad1be2c89b69c2b068fc378daa952ba7f163c4a11628f55a4df523b3ef",
            "0x000000000000000000000000edb7e57cd306dc00f30ea79c6125485eaad1cbff",
            "0x000000000000000000000000993a040a022fb002f36e0fb0831e5db0050cffcd"
          ],
          "data": "0x000000000000000000000000000000000000000000000000000000000001e240",
          "blockHash": "0x59554addd2e3f5a6018c134ea965fadce2cf5563ed13e556f120ff55a1ab0235",
          "blockNumber": "0x667e62",
          "transactionHash": "0x377eb9261ef62af575ddb13a6e03e30aa841900102ad622cfdecf67a24be5542",
          "transactionIndex": "0x5d",
          "logIndex": "0x6a",
          "removed": false
        }
      ],
      "logsBloom": "0x00000000000000000000000000000000000000000000000000000000000000000000000000000000000000000000000000000000000000000000000000000000000000000000000000000008000000000000000000000000000000000000000000000008000000000000000000000000000000000000000000000010000000000800000000000000000000000000000000000000000000000000000000000000000200000000000000000000000000000000001000000000000000000000000000000002000000001000000000000000000000000000000000000000000000000000000000000000000000000000000000000000000080000080000000000001",
      "type": "0x2",
      "transactionHash": "0x377eb9261ef62af575ddb13a6e03e30aa841900102ad622cfdecf67a24be5542",
      "transactionIndex": "0x5d",
      "blockHash": "0x59554addd2e3f5a6018c134ea965fadce2cf5563ed13e556f120ff55a1ab0235",
      "blockNumber": "0x667e62",
      "gasUsed": "0x10a49",
      "effectiveGasPrice": "0x161c2b646",
      "from": "0x993a040a022fb002f36e0fb0831e5db0050cffcd",
      "to": "0xbafff1fca61eaad3726fcd88fbe128a852c2e2fa",
      "contractAddress": null
    }
  ],
  "libraries": [],
  "pending": [],
  "returns": {},
  "timestamp": 1726688694,
  "chain": 11155111,
  "commit": "3093a9d"
}